{
    "_format": "hh3-artifact-1",
    "contractName": "ETFVault",
    "sourceName": "contracts/ETFVault.sol",
    "abi": [
        {
            "inputs": [],
            "stateMutability": "nonpayable",
            "type": "constructor"
        },
        {
            "inputs": [
                {
                    "internalType": "address",
                    "name": "spender",
                    "type": "address"
                },
                {
                    "internalType": "uint256",
                    "name": "allowance",
                    "type": "uint256"
                },
                {
                    "internalType": "uint256",
                    "name": "needed",
                    "type": "uint256"
                }
            ],
            "name": "ERC20InsufficientAllowance",
            "type": "error"
        },
        {
            "inputs": [
                {
                    "internalType": "address",
                    "name": "sender",
                    "type": "address"
                },
                {
                    "internalType": "uint256",
                    "name": "balance",
                    "type": "uint256"
                },
                {
                    "internalType": "uint256",
                    "name": "needed",
                    "type": "uint256"
                }
            ],
            "name": "ERC20InsufficientBalance",
            "type": "error"
        },
        {
            "inputs": [
                {
                    "internalType": "address",
                    "name": "approver",
                    "type": "address"
                }
            ],
            "name": "ERC20InvalidApprover",
            "type": "error"
        },
        {
            "inputs": [
                {
                    "internalType": "address",
                    "name": "receiver",
                    "type": "address"
                }
            ],
            "name": "ERC20InvalidReceiver",
            "type": "error"
        },
        {
            "inputs": [
                {
                    "internalType": "address",
                    "name": "sender",
                    "type": "address"
                }
            ],
            "name": "ERC20InvalidSender",
            "type": "error"
        },
        {
            "inputs": [
                {
                    "internalType": "address",
                    "name": "spender",
                    "type": "address"
                }
            ],
            "name": "ERC20InvalidSpender",
            "type": "error"
        },
        {
            "anonymous": false,
            "inputs": [
                {
                    "indexed": true,
                    "internalType": "address",
                    "name": "owner",
                    "type": "address"
                },
                {
                    "indexed": true,
                    "internalType": "address",
                    "name": "spender",
                    "type": "address"
                },
                {
                    "indexed": false,
                    "internalType": "uint256",
                    "name": "value",
                    "type": "uint256"
                }
            ],
            "name": "Approval",
            "type": "event"
        },
        {
            "anonymous": false,
            "inputs": [
                {
                    "indexed": true,
                    "internalType": "address",
                    "name": "from",
                    "type": "address"
                },
                {
                    "indexed": true,
                    "internalType": "address",
                    "name": "to",
                    "type": "address"
                },
                {
                    "indexed": false,
                    "internalType": "uint256",
                    "name": "value",
                    "type": "uint256"
                }
            ],
            "name": "Transfer",
            "type": "event"
        },
        {
            "inputs": [
                {
                    "internalType": "address",
                    "name": "owner",
                    "type": "address"
                },
                {
                    "internalType": "address",
                    "name": "spender",
                    "type": "address"
                }
            ],
            "name": "allowance",
            "outputs": [
                {
                    "internalType": "uint256",
                    "name": "",
                    "type": "uint256"
                }
            ],
            "stateMutability": "view",
            "type": "function"
        },
        {
            "inputs": [
                {
                    "internalType": "address",
                    "name": "spender",
                    "type": "address"
                },
                {
                    "internalType": "uint256",
                    "name": "value",
                    "type": "uint256"
                }
            ],
            "name": "approve",
            "outputs": [
                {
                    "internalType": "bool",
                    "name": "",
                    "type": "bool"
                }
            ],
            "stateMutability": "nonpayable",
            "type": "function"
        },
        {
            "inputs": [
                {
                    "internalType": "address",
                    "name": "account",
                    "type": "address"
                }
            ],
            "name": "balanceOf",
            "outputs": [
                {
                    "internalType": "uint256",
                    "name": "",
                    "type": "uint256"
                }
            ],
            "stateMutability": "view",
            "type": "function"
        },
        {
            "inputs": [],
            "name": "decimals",
            "outputs": [
                {
                    "internalType": "uint8",
                    "name": "",
                    "type": "uint8"
                }
            ],
            "stateMutability": "view",
            "type": "function"
        },
        {
            "inputs": [],
            "name": "deposit",
            "outputs": [],
            "stateMutability": "payable",
            "type": "function"
        },
        {
            "inputs": [],
            "name": "name",
            "outputs": [
                {
                    "internalType": "string",
                    "name": "",
                    "type": "string"
                }
            ],
            "stateMutability": "view",
            "type": "function"
        },
        {
            "inputs": [],
            "name": "owner",
            "outputs": [
                {
                    "internalType": "address",
                    "name": "",
                    "type": "address"
                }
            ],
            "stateMutability": "view",
            "type": "function"
        },
        {
            "inputs": [],
            "name": "symbol",
            "outputs": [
                {
                    "internalType": "string",
                    "name": "",
                    "type": "string"
                }
            ],
            "stateMutability": "view",
            "type": "function"
        },
        {
            "inputs": [],
            "name": "totalSupply",
            "outputs": [
                {
                    "internalType": "uint256",
                    "name": "",
                    "type": "uint256"
                }
            ],
            "stateMutability": "view",
            "type": "function"
        },
        {
            "inputs": [
                {
                    "internalType": "address",
                    "name": "to",
                    "type": "address"
                },
                {
                    "internalType": "uint256",
                    "name": "value",
                    "type": "uint256"
                }
            ],
            "name": "transfer",
            "outputs": [
                {
                    "internalType": "bool",
                    "name": "",
                    "type": "bool"
                }
            ],
            "stateMutability": "nonpayable",
            "type": "function"
        },
        {
            "inputs": [
                {
                    "internalType": "address",
                    "name": "from",
                    "type": "address"
                },
                {
                    "internalType": "address",
                    "name": "to",
                    "type": "address"
                },
                {
                    "internalType": "uint256",
                    "name": "value",
                    "type": "uint256"
                }
            ],
            "name": "transferFrom",
            "outputs": [
                {
                    "internalType": "bool",
                    "name": "",
                    "type": "bool"
                }
            ],
            "stateMutability": "nonpayable",
            "type": "function"
        }
    ],
    "bytecode": "0x608060405234801562000010575f80fd5b506040518060400160405280600e81526020017f41726320455446204261736b65740000000000000000000000000000000000008152506040518060400160405280600481526020017f414554460000000000000000000000000000000000000000000000000000000081525081600390816200008e91906200034d565b508060049081620000a091906200034d565b5050503360055f6101000a81548173ffffffffffffffffffffffffffffffffffffffff021916908373ffffffffffffffffffffffffffffffffffffffff16021790555062000431565b5f81519050919050565b7f4e487b71000000000000000000000000000000000000000000000000000000005f52604160045260245ffd5b7f4e487b71000000000000000000000000000000000000000000000000000000005f52602260045260245ffd5b5f60028204905060018216806200016557607f821691505b6020821081036200017b576200017a62000120565b5b50919050565b5f819050815f5260205f209050919050565b5f6020601f8301049050919050565b5f82821b905092915050565b5f60088302620001df7fffffffffffffffffffffffffffffffffffffffffffffffffffffffffffffffff82620001a2565b620001eb8683620001a2565b95508019841693508086168417925050509392505050565b5f819050919050565b5f819050919050565b5f620002356200022f620002298462000203565b6200020c565b62000203565b9050919050565b5f819050919050565b620002508362000215565b620002686200025f826200023c565b848454620001ae565b825550505050565b5f90565b6200027e62000270565b6200028b81848462000245565b505050565b5b81811015620002b257620002a65f8262000274565b60018101905062000291565b5050565b601f8211156200030157620002cb8162000181565b620002d68462000193565b81016020851015620002e6578190505b620002fe620002f58562000193565b83018262000290565b50505b505050565b5f82821c905092915050565b5f620003235f198460080262000306565b1980831691505092915050565b5f6200033d838362000312565b9150826002028217905092915050565b6200035882620000e9565b67ffffffffffffffff811115620003745762000373620000f3565b5b6200038082546200014d565b6200038d828285620002b6565b5f60209050601f831160018114620003c3575f8415620003ae578287015190505b620003ba858262000330565b86555062000429565b601f198416620003d38662000181565b5f5b82811015620003fc57848901518255600182019150602085019450602081019050620003d5565b868310156200041c578489015162000418601f89168262000312565b8355505b6001600288020188555050505b505050505050565b610f56806200043f5f395ff3fe60806040526004361061009b575f3560e01c806370a082311161006357806370a08231146101955780638da5cb5b146101d157806395d89b41146101fb578063a9059cbb14610225578063d0e30db014610261578063dd62ed3e1461026b5761009b565b806306fdde031461009f578063095ea7b3146100c957806318160ddd1461010557806323b872dd1461012f578063313ce5671461016b575b5f80fd5b3480156100aa575f80fd5b506100b36102a7565b6040516100c09190610bcf565b60405180910390f35b3480156100d4575f80fd5b506100ef60048036038101906100ea9190610c80565b610337565b6040516100fc9190610cd8565b60405180910390f35b348015610110575f80fd5b50610119610359565b6040516101269190610d00565b60405180910390f35b34801561013a575f80fd5b5061015560048036038101906101509190610d19565b610362565b6040516101629190610cd8565b60405180910390f35b348015610176575f80fd5b5061017f610390565b60405161018c9190610d84565b60405180910390f35b3480156101a0575f80fd5b506101bb60048036038101906101b69190610d9d565b610398565b6040516101c89190610d00565b60405180910390f35b3480156101dc575f80fd5b506101e56103dd565b6040516101f29190610dd7565b60405180910390f35b348015610206575f80fd5b5061020f610402565b60405161021c9190610bcf565b60405180910390f35b348015610230575f80fd5b5061024b60048036038101906102469190610c80565b610492565b6040516102589190610cd8565b60405180910390f35b6102696104b4565b005b348015610276575f80fd5b50610291600480360381019061028c9190610df0565b6104c0565b60405161029e9190610d00565b60405180910390f35b6060600380546102b690610e5b565b80601f01602080910402602001604051908101604052809291908181526020018280546102e290610e5b565b801561032d5780601f106103045761010080835404028352916020019161032d565b820191905f5260205f20905b81548152906001019060200180831161031057829003601f168201915b5050505050905090565b5f80610341610542565b905061034e818585610549565b600191505092915050565b5f600254905090565b5f8061036c610542565b905061037985828561055b565b6103848585856105ee565b60019150509392505050565b5f6012905090565b5f805f8373ffffffffffffffffffffffffffffffffffffffff1673ffffffffffffffffffffffffffffffffffffffff1681526020019081526020015f20549050919050565b60055f9054906101000a900473ffffffffffffffffffffffffffffffffffffffff1681565b60606004805461041190610e5b565b80601f016020809104026020016040519081016040528092919081815260200182805461043d90610e5b565b80156104885780601f1061045f57610100808354040283529160200191610488565b820191905f5260205f20905b81548152906001019060200180831161046b57829003601f168201915b5050505050905090565b5f8061049c610542565b90506104a98185856105ee565b600191505092915050565b6104be33346106de565b565b5f60015f8473ffffffffffffffffffffffffffffffffffffffff1673ffffffffffffffffffffffffffffffffffffffff1681526020019081526020015f205f8373ffffffffffffffffffffffffffffffffffffffff1673ffffffffffffffffffffffffffffffffffffffff1681526020019081526020015f2054905092915050565b5f33905090565b610556838383600161075d565b505050565b5f61056684846104c0565b90507fffffffffffffffffffffffffffffffffffffffffffffffffffffffffffffffff8110156105e857818110156105d9578281836040517ffb8f41b20000000000000000000000000000000000000000000000000000000081526004016105d093929190610e8b565b60405180910390fd5b6105e784848484035f61075d565b5b50505050565b5f73ffffffffffffffffffffffffffffffffffffffff168373ffffffffffffffffffffffffffffffffffffffff160361065e575f6040517f96c6fd1e0000000000000000000000000000000000000000000000000000000081526004016106559190610dd7565b60405180910390fd5b5f73ffffffffffffffffffffffffffffffffffffffff168273ffffffffffffffffffffffffffffffffffffffff16036106ce575f6040517fec442f050000000000000000000000000000000000000000000000000000000081526004016106c59190610dd7565b60405180910390fd5b6106d983838361092c565b505050565b5f73ffffffffffffffffffffffffffffffffffffffff168273ffffffffffffffffffffffffffffffffffffffff160361074e575f6040517fec442f050000000000000000000000000000000000000000000000000000000081526004016107459190610dd7565b60405180910390fd5b6107595f838361092c565b5050565b5f73ffffffffffffffffffffffffffffffffffffffff168473ffffffffffffffffffffffffffffffffffffffff16036107cd575f6040517fe602df050000000000000000000000000000000000000000000000000000000081526004016107c49190610dd7565b60405180910390fd5b5f73ffffffffffffffffffffffffffffffffffffffff168373ffffffffffffffffffffffffffffffffffffffff160361083d575f6040517f94280d620000000000000000000000000000000000000000000000000000000081526004016108349190610dd7565b60405180910390fd5b8160015f8673ffffffffffffffffffffffffffffffffffffffff1673ffffffffffffffffffffffffffffffffffffffff1681526020019081526020015f205f8573ffffffffffffffffffffffffffffffffffffffff1673ffffffffffffffffffffffffffffffffffffffff1681526020019081526020015f20819055508015610926578273ffffffffffffffffffffffffffffffffffffffff168473ffffffffffffffffffffffffffffffffffffffff167f8c5be1e5ebec7d5bd14f71427d1e84f3dd0314c0f7b2291e5b200ac8c7c3b9258460405161091d9190610d00565b60405180910390a35b50505050565b5f73ffffffffffffffffffffffffffffffffffffffff168373ffffffffffffffffffffffffffffffffffffffff160361097c578060025f8282546109709190610eed565b92505081905550610a4a565b5f805f8573ffffffffffffffffffffffffffffffffffffffff1673ffffffffffffffffffffffffffffffffffffffff1681526020019081526020015f2054905081811015610a05578381836040517fe450d38c0000000000000000000000000000000000000000000000000000000081526004016109fc93929190610e8b565b60405180910390fd5b8181035f808673ffffffffffffffffffffffffffffffffffffffff1673ffffffffffffffffffffffffffffffffffffffff1681526020019081526020015f2081905550505b5f73ffffffffffffffffffffffffffffffffffffffff168273ffffffffffffffffffffffffffffffffffffffff1603610a91578060025f8282540392505081905550610adb565b805f808473ffffffffffffffffffffffffffffffffffffffff1673ffffffffffffffffffffffffffffffffffffffff1681526020019081526020015f205f82825401925050819055505b8173ffffffffffffffffffffffffffffffffffffffff168373ffffffffffffffffffffffffffffffffffffffff167fddf252ad1be2c89b69c2b068fc378daa952ba7f163c4a11628f55a4df523b3ef83604051610b389190610d00565b60405180910390a3505050565b5f81519050919050565b5f82825260208201905092915050565b5f5b83811015610b7c578082015181840152602081019050610b61565b5f8484015250505050565b5f601f19601f8301169050919050565b5f610ba182610b45565b610bab8185610b4f565b9350610bbb818560208601610b5f565b610bc481610b87565b840191505092915050565b5f6020820190508181035f830152610be78184610b97565b905092915050565b5f80fd5b5f73ffffffffffffffffffffffffffffffffffffffff82169050919050565b5f610c1c82610bf3565b9050919050565b610c2c81610c12565b8114610c36575f80fd5b50565b5f81359050610c4781610c23565b92915050565b5f819050919050565b610c5f81610c4d565b8114610c69575f80fd5b50565b5f81359050610c7a81610c56565b92915050565b5f8060408385031215610c9657610c95610bef565b5b5f610ca385828601610c39565b9250506020610cb485828601610c6c565b9150509250929050565b5f8115159050919050565b610cd281610cbe565b82525050565b5f602082019050610ceb5f830184610cc9565b92915050565b610cfa81610c4d565b82525050565b5f602082019050610d135f830184610cf1565b92915050565b5f805f60608486031215610d3057610d2f610bef565b5b5f610d3d86828701610c39565b9350506020610d4e86828701610c39565b9250506040610d5f86828701610c6c565b9150509250925092565b5f60ff82169050919050565b610d7e81610d69565b82525050565b5f602082019050610d975f830184610d75565b92915050565b5f60208284031215610db257610db1610bef565b5b5f610dbf84828501610c39565b91505092915050565b610dd181610c12565b82525050565b5f602082019050610dea5f830184610dc8565b92915050565b5f8060408385031215610e0657610e05610bef565b5b5f610e1385828601610c39565b9250506020610e2485828601610c39565b9150509250929050565b7f4e487b71000000000000000000000000000000000000000000000000000000005f52602260045260245ffd5b5f6002820490506001821680610e7257607f821691505b602082108103610e8557610e84610e2e565b5b50919050565b5f606082019050610e9e5f830186610dc8565b610eab6020830185610cf1565b610eb86040830184610cf1565b949350505050565b7f4e487b71000000000000000000000000000000000000000000000000000000005f52601160045260245ffd5b5f610ef782610c4d565b9150610f0283610c4d565b9250828201905080821115610f1a57610f19610ec0565b5b9291505056fea2646970667358221220debaadc957c356890603fae88a0361986983fb935db703b0f2f5f361bbdd11bf64736f6c63430008140033",
    "linkReferences": {},
    "deployedLinkReferences": {},
    "immutableReferences": {},
    "inputSourceName": "project/contracts/ETFVault.sol",
    "buildInfoId": "solc-0_8_20-1a4ef9c4a58591596d61629f6caf368d45c3aa2a"
}